{
  "contractName": "EHRContract",
  "abi": [
    {
      "constant": true,
      "inputs": [],
      "name": "taskCount",
      "outputs": [
        {
          "name": "",
          "type": "uint256"
        }
      ],
      "payable": false,
      "stateMutability": "view",
      "type": "function"
    }
  ],
  "bytecode": "0x608060405260008055348015601357600080fd5b506099806100226000396000f3fe608060405260043610603e5763ffffffff7c0100000000000000000000000000000000000000000000000000000000600035041663b6cb58a581146043575b600080fd5b348015604e57600080fd5b5060556067565b60408051918252519081900360200190f35b6000548156fea165627a7a723058207f876904512583489bfb641b38a2064ca35c5c5bf78adfb39079b5d0faca89d40029",
  "source": "pragma solidity ^0.5.0;\r\n\r\ncontract EHRContract {\r\n    uint public taskCount = 0;\r\n}",
  "sourcePath": "C:/Users/rvigneshvaran/Desktop/EHRBlockchain/contracts/EHRContract.sol",
  "compiler": {
    "name": "solc",
    "version": "0.5.0+commit.1d4f565a.Emscripten.clang"
  },
  "schemaVersion": "3.0.1",
  "updatedAt": "2020-03-12T11:46:16.571Z",
  "devdoc": {
    "methods": {}
  },
  "userdoc": {
    "methods": {}
  }
}